{
  "transactions": [
    {
      "hash": "0x4dbb09cef9c63afb18012664a7f43416fdd563e5a5d3d0012b1f43fc34eebeb4",
      "transactionType": "CALL",
      "contractName": null,
      "contractAddress": "0x779877A7B0D9E8603169DdbD7836e478b4624789",
      "function": "transferAndCall(address,uint256,bytes)",
      "arguments": [
        "0x9DdfaCa8183c41ad55329BdeeD9F6A8d53168B1B",
        "3000000000000000000",
        "0x3150ed14812dd639fa6911814a651839aa984f350984989d27f6e87cdd235381"
      ],
      "transaction": {
        "type": "0x02",
        "from": "0x61e3ddcbdf250c5e775f78f91af9b0a3230422ba",
        "to": "0x779877a7b0d9e8603169ddbd7836e478b4624789",
        "gas": "0x1c1ff",
        "value": "0x0",
        "data": "0x4000aea00000000000000000000000009ddfaca8183c41ad55329bdeed9f6a8d53168b1b00000000000000000000000000000000000000000000000029a2241af62c0000000000000000000000000000000000000000000000000000000000000000006000000000000000000000000000000000000000000000000000000000000000203150ed14812dd639fa6911814a651839aa984f350984989d27f6e87cdd235381",
        "nonce": "0xf",
        "accessList": []
      },
      "additionalContracts": [],
      "isFixedGasLimit": false
    }
  ],
  "receipts": [
    {
      "transactionHash": "0x4dbb09cef9c63afb18012664a7f43416fdd563e5a5d3d0012b1f43fc34eebeb4",
      "transactionIndex": "0x11",
      "blockHash": "0x41b13d8ff8339eac03b921d63c8a463a0bc1135ef1921982f88f5876ad03874a",
      "blockNumber": "0x665c95",
      "from": "0x61e3dDcbdF250C5e775f78F91AF9b0A3230422bA",
      "to": "0x779877A7B0D9E8603169DdbD7836e478b4624789",
      "cumulativeGasUsed": "0x4202c1",
      "gasUsed": "0x133b1",
      "contractAddress": null,
      "logs": [
        {
          "address": "0x779877A7B0D9E8603169DdbD7836e478b4624789",
          "topics": [
            "0xddf252ad1be2c89b69c2b068fc378daa952ba7f163c4a11628f55a4df523b3ef",
            "0x00000000000000000000000061e3ddcbdf250c5e775f78f91af9b0a3230422ba",
            "0x0000000000000000000000009ddfaca8183c41ad55329bdeed9f6a8d53168b1b"
          ],
          "data": "0x00000000000000000000000000000000000000000000000029a2241af62c0000",
          "blockHash": "0x41b13d8ff8339eac03b921d63c8a463a0bc1135ef1921982f88f5876ad03874a",
          "blockNumber": "0x665c95",
          "transactionHash": "0x4dbb09cef9c63afb18012664a7f43416fdd563e5a5d3d0012b1f43fc34eebeb4",
          "transactionIndex": "0x11",
          "logIndex": "0x1f",
          "removed": false
        },
        {
          "address": "0x779877A7B0D9E8603169DdbD7836e478b4624789",
          "topics": [
            "0xe19260aff97b920c7df27010903aeb9c8d2be5d310a2c67824cf3f15396e4c16",
            "0x00000000000000000000000061e3ddcbdf250c5e775f78f91af9b0a3230422ba",
            "0x0000000000000000000000009ddfaca8183c41ad55329bdeed9f6a8d53168b1b"
          ],
          "data": "0x00000000000000000000000000000000000000000000000029a2241af62c0000000000000000000000000000000000000000000000000000000000000000004000000000000000000000000000000000000000000000000000000000000000203150ed14812dd639fa6911814a651839aa984f350984989d27f6e87cdd235381",
          "blockHash": "0x41b13d8ff8339eac03b921d63c8a463a0bc1135ef1921982f88f5876ad03874a",
          "blockNumber": "0x665c95",
          "transactionHash": "0x4dbb09cef9c63afb18012664a7f43416fdd563e5a5d3d0012b1f43fc34eebeb4",
          "transactionIndex": "0x11",
          "logIndex": "0x20",
          "removed": false
        },
        {
          "address": "0x9DdfaCa8183c41ad55329BdeeD9F6A8d53168B1B",
          "topics": [
            "0x1ced9348ff549fceab2ac57cd3a9de38edaaab274b725ee82c23e8fc8c4eec7a",
            "0x3150ed14812dd639fa6911814a651839aa984f350984989d27f6e87cdd235381"
          ],
          "data": "0x000000000000000000000000000000000000000000000000000000000000000000000000000000000000000000000000000000000000000029a2241af62c0000",
          "blockHash": "0x41b13d8ff8339eac03b921d63c8a463a0bc1135ef1921982f88f5876ad03874a",
          "blockNumber": "0x665c95",
          "transactionHash": "0x4dbb09cef9c63afb18012664a7f43416fdd563e5a5d3d0012b1f43fc34eebeb4",
          "transactionIndex": "0x11",
          "logIndex": "0x21",
          "removed": false
        }
      ],
      "status": "0x1",
      "logsBloom": "0x00000004000000000000000000000000000000000020000000000000020000000000000000000000000000000a00000000000000000000020000000000000000000000000000000000000008000000001000000000000000000020000020000008000000000000000000000000000000000000000000000000000010000040020000000000000000000000010000800000000020000000000000000000000000000000000000000000000000010000000000000000000000000004000000000000000002000000000000000000000000000000000000000100000000000000000010000000000000800000000000000000000000000000000010000000000000",
      "type": "0x2",
      "effectiveGasPrice": "0x8109e7b93"
    }
  ],
  "libraries": [],
  "pending": [],
  "returns": {},
  "timestamp": 1726565920,
  "chain": 11155111,
  "commit": null
}